:020000040800F2
:10000000700700202902000879190008E31600088B
:10001000F51800081F040008EB1F0008000000008E
:10002000000000000000000000000000CF1B0008DE
:100030002304000800000000CD1B0008D11B0008AD
:10004000430200084302000843020008430200087C
:10005000430200084302000843020008430200086C
:10006000430200084302000843020008430200085C
:10007000430200084302000843020008430200084C
:10008000430200084302000843020008430200083C
:10009000430200084302000843020008430200082C
:1000A00043020008A11C00084302000843020008A4
:1000B000430200084302000843020008430200080C
:1000C00043020008430200084302000843020008FC
:1000D00043020008430200084302000843020008EC
:1000E00043020008430200084302000843020008DC
:1000F00043020008430200084302000843020008CC
:1001000043020008430200084302000843020008BB
:1001100043020008430200084302000843020008AB
:10012000430200084302000843020008430200089B
:10013000430200084302000843020008430200088B
:10014000430200084302000843020008430200087B
:10015000430200084302000843020008430200086B
:10016000430200084302000843020008430200085B
:100170004302000843020008430200080000000098
:10018000430200084302000800F002F800F03CF8C7
:100190000AA090E8000C82448344AAF10107DA45E2
:1001A00001D100F031F8AFF2090EBAE80F0013F0F8
:1001B000010F18BFFB1A43F0010318474423000046
:1001C00064230000103A24BF78C878C1FAD85207D7
:1001D00024BF30C830C144BF04680C6070470000C1
:1001E0000023002400250026103A28BF78C1FBD840
:1001F000520728BF30C148BF0B6070471FB502F0DF
:1002000067F91FBD10B510BD00F0CFF81146FFF71C
:10021000F5FF02F047F900F0EDF803B4FFF7F2FF45
:1002200003BC00F0F5F80000094880470948004782
:10023000FEE7FEE7FEE7FEE7FEE7FEE7FEE7FEE796
:10024000FEE7FEE704480549054A064B70470000F3
:100250008D1C000889010008700100207007002033
:10026000700300207003002053EA020C00F0698044
:100270002DE9F04B4FF00006002B1FBFB3FA83F5BA
:1002800003FA05F424FA05F65E4012BF1643B2FAEB
:1002900082F502FA05F4C5F120051EBF22FA05FC1D
:1002A00044EA0C04203556EA044C4FEA144418BFC3
:1002B000641C4FF000084FF00009904271EB030CF2
:1002C00039D3002919BFB1FA81F701FA07F6B0FA5C
:1002D00080F700FA07F6C7F120071EBF20FA07FCD7
:1002E00046EA0C062037B6FBF4FCA7EB0507103FE7
:1002F00007F01F0BCBF120060CFA0BFB2CFA06F6CD
:1003000044BFB3460026202FA4BF5E464FF0000B2B
:100310005BEA060C08BF4FF0010B19EB0B09ABFBB6
:10032000027C48EB0608C01B06FB02CC0BFB03CC8F
:1003300071EB0C01C1E70B46024641464846BDE859
:10034000F08B13B54FF000004FF00001AFF30080C9
:10035000BDE81C4070474FF0000200B513469446BC
:100360009646203922BFA0E80C50A0E80C50B1F10D
:100370002001BFF4F7AF090728BFA0E80C5048BF21
:100380000CC05DF804EB890028BF40F8042B08BFBF
:10039000704748BF20F8022B11F0804F18BF00F8BB
:1003A000012B7047704770477047754600F02CF876
:1003B000AE4605006946534620F00700854618B052
:1003C00020B5FFF73FFFBDE820404FF000064FF09B
:1003D00000074FF000084FF0000B21F00701AC467A
:1003E000ACE8C009ACE8C009ACE8C009ACE8C00999
:1003F0008D46704710B50446AFF300802046BDE837
:100400001040FFF70ABF0000004870470C010020B1
:1004100001491820ABBEFEE726000200704700BF6E
:10042000FEE7704772B600BFFEE70000F8B502466F
:100430000B460025002400200021D6E0012606FA04
:1004400001F51E6806EA0504AC4274D11E7906F077
:100450000306012E04D01E7906F00306022E13D1E6
:1004600090684F000326BE40B0434F00DE68BE4098
:1004700030439060506801268E40B0431E79C6F329
:1004800000168E40304350601E7906F00306032E9E
:1004900009D0D0684F000326BE40B0434F009E688D
:1004A000BE403043D0601E7906F00306022E13D101
:1004B000CF0802F1200656F827004E07F70E0F2648
:1004C000BE40B0434F07FF0E1E69BE403043CF0809
:1004D00002F1200646F8270010684F000326BE40B0
:1004E000B0431E7906F003064F00BE403043106053
:1004F0005E6806F44036002E76D000BF00260096D7
:100500003C4E366846F480463A4F3E603E4636687A
:1005100006F48046009600BF00BF374E8F0856F89D
:1005200027008E07370F0F26BE40B043334EB2422E
:1005300002D1002624E057E0314EB24201D101261B
:100540001EE0304EB24201D1022619E02E4EB242D8
:1005500001D1032614E02D4EB24201D104260FE052
:100560002B4EB24201D105260AE02A4EB24201D1F9
:10057000062605E0284EB24201D1072600E00826F3
:100580008F073F0FBE4030431B4E8F0846F82700B1
:10059000224E3068A0435E6806F4801606B1204300
:1005A0001E4E3060361D3068A0435E6806F40016AB
:1005B00006B12043194E361D3060184E361F306884
:1005C000A0435E6806F4003606B12043134E361F82
:1005D0003060361F3068A0435E6806F4803606B18E
:1005E00020430E4E083E3060491C1029FFF426AF10
:1005F000F8BD0000443802400838014000000240C5
:100600000004024000080240000C024000100240BA
:100610000014024000180240001C0240083C014047
:10062000024613690B400BB1012000E00020704727
:10063000014800687047000000000020034800687F
:100640000349097808440149086070470000002008
:100650000800002010B50D48006840F400700B49F8
:1006600008600846006840F480600860084600683A
:1006700040F480700860032000F0A6F80F2000F01E
:1006800007F800F02BF8002010BD0000003C0240ED
:1006900070B504460E4800784FF47A71B1FBF0F063
:1006A0000C490968B1FBF0F5284600F009FC08B1D7
:1006B000012070BD102C07D200222146501E00F0F0
:1006C00045F80548046001E00120F2E70020F0E76A
:1006D000080000200C0000200400002008B500BF26
:1006E000002000900E48006840F480400C490860EB
:1006F0000846006800F48040009000BF00BF00BFC3
:1007000000200090081F006840F08050091F08601A
:100710000846006800F08050009000BF00BF08BD90
:10072000443802400146084600280DDB00BF00BFE8
:1007300000F01F0301229A4043099B0003F1E023CC
:10074000C3F8002100BF00BF00BF70472DE9F05F74
:1007500080460D461646002701F04AFC07463946FA
:100760002A46334601F00700C0F1070ABAF1040F28
:1007700002D94FF0040A01E0C0F1070AD14600F1A6
:10078000040ABAF1070F02D24FF0000A01E0A0F10B
:10079000030AD4464FF0010A0AFA09FAAAF1010A3B
:1007A0000AEA020A0AFA0CFA4FF0010B0BFA0CFBE8
:1007B000ABF1010B0BEA030B4AEA0B04214640465E
:1007C00001F01EFCBDE8F09F00BF00F00702064BE1
:1007D00019684FF6FF031940044B0B4343EA02210B
:1007E000014B196000BF70470CED00E00000FA05F6
:1007F00070B504460D460CB9012070BD584800681C
:1008000000F00700A84209D255490D70084600685B
:1008100000F00700A84201D00120EEE7207800F0A8
:10082000020002281DD1207800F00400042805D120
:100830004C48006840F4E0504A490860207800F0D5
:100840000800082805D14748006840F46040454941
:1008500008604448006820F0F000A168084341495E
:100860000860207800F00100A8B36068012807D173
:100870003C4808380068C0F34040B8B90120BCE7E4
:100880006068022802D06068032807D1354808381C
:100890000068C0F3406048B90120AEE7314808382D
:1008A0000068C0F3400008B90120A6E72D480068A1
:1008B00020F00300616808432A490860FFF7B8FE8A
:1008C000064609E0FFF7B4FE801B41F288318842FA
:1008D00002D9032091E707E02248006800F00C00ED
:1008E0006168B0EB810FEDD11D48006800F0070092
:1008F000A84209D91A490D700846006800F007009F
:10090000A84201D0012078E7207800F004000428F4
:1009100007D11448006820F4E050E1680843114909
:100920000860207800F00800082808D10D48006809
:1009300020F46040216940EAC1000A49086000F0E3
:1009400019F808490968C1F30311074A515CC84006
:100950000649086006480068FFF79AFE00204CE749
:10096000003C024008380240DA2400080C00002055
:10097000040000202DE9F047002400250026A146B0
:100980002548006800F00C0020B1042805D0082894
:100990003AD105E0DFF8849039E0DFF8849036E062
:1009A0001D48001F006800F03F041B48001F00683E
:1009B00000F4800078B11A481749091F0968C1F38B
:1009C0008811A0FB01700146224600233846FFF73C
:1009D0004BFC05460EE011480F49091F0968C1F399
:1009E0008811A0FB01700146224600233846FFF71C
:1009F0003BFC05460848001F0068C0F30140401C4E
:100A00004600B5FBF6F902E0DFF8109000BF00BF2A
:100A10004846BDE8F0870000083802400024F40092
:100A200000127A00F8B504460CB90120F8BD207810
:100A300000F00100002874D0F948006800F00C00B4
:100A400004280DD0F648006800F00C00082813D1E7
:100A5000F348001F006800F48000B0F5800F0BD150
:100A6000EF4808380068C0F34040002859D060685B
:100A7000002856D10120D9E700BF6068B0F5803F5B
:100A800008D1E7480838006840F48030E449083964
:100A900008601EE06068B0F5A02F0DD1E04808386E
:100AA000006840F48020DE49083908600846006884
:100AB00040F4803008600CE0D9480838006820F421
:100AC0008030D749083908600846006820F4802043
:100AD000086000BF606890B1FFF7AAFD054606E018
:100AE000FFF7A6FD401B642801D903209EE7CC48F0
:100AF00008380068C0F340400028F1D011E0FFF74B
:100B000097FD054606E0FFF793FD401B642801D9D9
:100B100003208BE7C24808380068C0F34040002833
:100B2000F1D1207800F0020002285FD1BC480068B3
:100B300000F00C0058B1BA48006800F00C0008281A
:100B40001CD1B748001F006800F48000B0B9B44859
:100B500008380068C0F3400020B1E068012801D0E7
:100B6000012063E7AE480838006820F0F8002169EA
:100B700040EAC100AA490839086037E0E06800B3DC
:100B80000120A8490860FFF753FD054606E0FFF77E
:100B90004FFD401B022801D9032047E7A048083831
:100BA0000068C0F340000028F1D09D480838006874
:100BB00020F0F800216940EAC1009949083908602D
:100BC00014E0002097490860FFF732FD054606E073
:100BD000FFF72EFD401B022801D9032026E790488D
:100BE00008380068C0F340000028F1D1207800F0F8
:100BF000080008282CD16069A8B101208A49086042
:100C0000FFF716FD054606E0FFF712FD401B022820
:100C100001D903200AE782486C300068C0F3400025
:100C20000028F1D014E000207F490860FFF700FDA4
:100C3000054606E0FFF7FCFC401B022801D9032013
:100C4000F4E677486C300068C0F340000028F1D12A
:100C5000207800F00400042870D100277048383054
:100C6000006800F0805090B900BF002000906C48F0
:100C70003830006840F080506949383108600846D3
:100C8000006800F08050009000BF00BF0127674857
:100C9000006800F48070B0B96448006840F4807067
:100CA00062490860FFF7C4FC054606E0FFF7C0FC98
:100CB000401B022801D90320B8E65C48006800F414
:100CC00080700028F2D000BFA068012808D15448E5
:100CD0006830006840F001005149683108601DE04B
:100CE000A06805280DD14E486830006840F0040027
:100CF0004B49683108600846006840F00100086010
:100D00000CE047486830006820F001004449683131
:100D100008600846006820F00400086000BFA06872
:100D2000A8B1FFF785FC054609E0FFF781FC401BF1
:100D300041F28831884202D9032077E626E038481C
:100D400068300068C0F340000028EED013E0FFF7E1
:100D50006FFC054608E0FFF76BFC401B41F2883151
:100D6000884201D9032061E62D4868300068C0F34D
:100D700040000028EFD1012F07D129483830006802
:100D800020F0805026493831086000BFA069002853
:100D900045D02348006800F00C0008285DD0A06909
:100DA000022845D100201F490866FFF741FC05468F
:100DB00006E0FFF73DFC401B022801D9032035E681
:100DC000174808380068C0F340600028F1D1D4E922
:100DD00007010843616A40EA81110122A06AC2EB5F
:100DE000500041EA00412C20005D41EA00600C49BE
:100DF000091F086001200B490866FFF719FC05462A
:100E000006E0FFF715FC401B022801D903200DE680
:100E1000034808380068C0F340600028F1D049E07A
:100E20000838024000004742800E474200700040F0
:100E3000002021490866FFF7FBFB054606E0FFF7A7
:100E4000F7FB401B022801D90320EFE51B4800688F
:100E5000C0F340600028F2D12CE0A069012800D145
:100E6000E4E51648001D0668A069012820D006F4B4
:100E70008001E06981421BD106F03F01206A814276
:100E800016D147F6C0703040616AB0EB811F0FD1B8
:100E900006F440310122A06AC2EB5000B1EB004FD2
:100EA00006D106F070612C20005DB1EB006F01D01F
:100EB0000120BBE50020B9E50000474200380240B0
:100EC00070B504462546681EB0F1807F01D301202D
:100ED0000FE0681E4FF0E02148610F214FF0FF3016
:100EE00001F08EF800204FF0E021886107200861B2
:100EF000002070BD7047704730B502460B4600BFFA
:100F000092F83C00012801D1022030BD012082F876
:100F10003C0000BF022082F83D0010684468106861
:100F2000816824F070041868044310684460184D08
:100F30001068A8421BD01068B0F1804F17D0154D33
:100F40001068A84213D0144D1068A8420FD0134D5A
:100F50001068A8420BD0124D1068A84207D0114D5E
:100F60001068A84203D0104D1068A84205D121F0A6
:100F700080015868014310688160012082F83D00BB
:100F800000BF002082F83C0000BF00BFBDE70000AA
:100F9000000001400004004000080040000C004038
:100FA00000040140004001400018004010B5044614
:100FB0000CB9012010BD94F83D0028B9002084F838
:100FC0003C00204600F026F8022084F83D00211D58
:100FD000206800F06DFE012084F8460000BF84F810
:100FE0003E0001213F20015540200155412001557F
:100FF00000BF00BF012084F8420043200155442077
:1010000001554520015500BF012084F83D00002016
:10101000D0E7000038B504461949206888420FD14E
:1010200000BF002000901748006840F002001549FA
:1010300008600846006800F00200009000BF1DE054
:1010400011492068884219D100BF002000900D4846
:10105000001D006840F400300A49091D0860084678
:10106000006800F40030009000BF00BF002205219E
:101070001920FFF76BFB1920FFF754FB38BD000068
:10108000000400404038024000440140014691F80D
:101090003D00012801D001207047022081F83D0069
:1010A0000868C06840F001000B68D8601A4B0868F7
:1010B00098421BD00868B0F1804F17D0174B0868D2
:1010C000984213D0164B086898420FD0154B086809
:1010D00098420BD0144B0868984207D0134B08680D
:1010E000984203D0124B086898420CD10868806877
:1010F00000F00702062A0CD00868006840F00100E2
:101100000B68186005E00868006840F001000B6893
:1011100018600020C0E7000000000140000400400B
:1011200000080040000C0040000401400040014065
:10113000001800402DE9F04104460D46002700BF8D
:1011400094F83C00012802D10220BDE8F081012082
:1011500084F83C0000BF022084F83D0020688668C7
:1011600026F0770626F47F46206886602868502897
:1011700033D00CDC202850D004DC00284BD01028C1
:1011800051D149E0302849D040284CD139E060287D
:101190002DD0702807D0B0F5805F03D0B0F5005F88
:1011A00041D10DE041E0D5E902136A68206800F002
:1011B00004FE2068866846F077062068866034E082
:1011C000D5E902136A68206800F0F7FD206880689E
:1011D00040F480402168886027E0EA6869682068F8
:1011E00000F0DCFE5021206800F0F2FD1DE0EA680E
:1011F0006968206800F0E5FE6021206800F0E8FDE5
:1012000013E0EA686968206800F0C8FE40212068A1
:1012100000F0DEFD09E000BF00BF00BF29682068C4
:1012200000F0D6FD01E0012700BF00BF012084F8D7
:101230003D0000BF002084F83C0000BF384684E732
:10124000704770B504462068C5682068066906F0D6
:101250000200022819D105F00200022815D1401F12
:1012600021680861012020772068806900F0030070
:1012700018B12046FFF7E4FF05E0204600F0E8F84B
:10128000204600F09CF90020207706F00400042896
:1012900019D105F00400042815D1C0432168086164
:1012A000022020772068806900F4407018B1204641
:1012B000FFF7C6FF05E0204600F0CAF8204600F020
:1012C0007EF90020207706F00800082819D105F0E3
:1012D0000800082815D1C043216808610420207740
:1012E0002068C06900F0030018B12046FFF7A8FF8E
:1012F00005E0204600F0ACF8204600F060F9002040
:10130000207706F01000102819D105F010001028E1
:1013100015D1C04321680861082020772068C06982
:1013200000F4407018B12046FFF78AFF05E0204620
:1013300000F08EF8204600F042F90020207706F0F9
:10134000010048B105F0010030B16FF001002168E3
:101350000861204600F0BAF906F08000802809D123
:1013600005F08000802805D1C0432168086120462F
:10137000FFF7C0FD06F04000402809D105F040000D
:10138000402805D1C04321680861204600F0A8F933
:1013900006F02000202809D105F02000202805D1E2
:1013A000C043216808612046FFF7A5FD70BD00001D
:1013B00010B586B00446142101A8FEF7CCFF2049E1
:1013C0002068884239D100BF002000901D48006885
:1013D00040F001001B4908600846006800F0010069
:1013E000009000BF00BF00BF0020009008460068CA
:1013F00040F0040008600846006800F00400009017
:1014000000BF00BFC0200190022002900020039086
:1014100004900220059001A90B48FFF707F84FF44C
:10142000407001900220029000200390049002205E
:10143000059001A90548FEF7F9FF06B010BD0000B0
:101440000004004030380240000002400008024022
:1014500070472DE9F04104460D461646002700BFAF
:1014600094F83C00012802D10220BDE8F08101205F
:1014700084F83C0000BF36B1042E1BD0082E31D0BA
:101480000C2E5ED145E02946206800F0ABFC2068B8
:10149000806940F00800216888612068806920F038
:1014A00004002168886120688069296908432168EF
:1014B000886148E02946206800F0CCFC20688069FB
:1014C00040F40060216888612068806920F48060B1
:1014D0002168886120688069296940EA01202168C3
:1014E000886130E02946206800F0F2FC2068C0697D
:1014F00040F008002168C8612068C06920F004003D
:101500002168C8612068C069296908432168C861E9
:1015100019E02946206800F017FD2068C06940F4F2
:1015200000602168C8612068C06920F4806021687B
:10153000C8612068C069296940EA01202168C86142
:1015400001E0012700BF00BF00BF002084F83C007D
:1015500000BF384689E710B504460CB9012010BD1C
:1015600094F83D0028B9002084F83C00204600F0A3
:1015700025F8022084F83D00211D206800F098FB2A
:10158000012084F8460000BF84F83E0001213F207E
:101590000155402001554120015500BF00BF0120E9
:1015A00084F842004320015544200155452001554F
:1015B00000BF012084F83D000020D0E7704770474D
:1015C00070B504460D4615B994F83E000BE0042DA5
:1015D00002D13F20005D06E0082D02D14020005DD1
:1015E00001E04120005D012801D0012070BD1DB93E
:1015F000022084F83E000EE0042D03D102213F209A
:10160000015508E0082D03D102214020015502E0D8
:1016100002214120015501222946206800F0BCFB2F
:1016200023492068884203D022492068884201D19A
:10163000012000E0002028B12068406C40F4004008
:10164000216848641A49206888421BD02068B0F19C
:10165000804F17D018492068884213D01749206856
:1016600088420FD01649206888420BD01149206863
:10167000884207D013492068884203D01249206865
:1016800088420CD12068806800F00706062E0CD036
:101690002068006840F001002168086005E02068CB
:1016A000006840F001002168086000209EE700000B
:1016B0000000014000040140000400400008004018
:1016C000000C0040004001400018004010B50446E6
:1016D0000248844201D100F0A7FC10BD7C0000202C
:1016E000704700BFFEE7000010B500210748FFF774
:1016F00067FF04210548FFF763FF08210348FFF750
:101700005FFF0C210148FFF75BFF10BD3400002094
:1017100000B587B0142102A8FEF71DFE00BF00200F
:1017200001902F48006840F010002D4908600846DD
:10173000006800F01000019000BF00BF00BF002053
:1017400001900846006840F0040008600846006800
:1017500000F00400019000BF00BF00BF0020019016
:101760000846006840F0800008600846006800F005
:101770008000019000BF00BF00BF0020019008461C
:10178000006840F0010008600846006800F00100B1
:10179000019000BF00BF00BF002001900846006814
:1017A00040F0020008600846006800F00200019066
:1017B00000BF00BF0F20029000200390049002A9F8
:1017C0000848FEF733FE4FF470700290002003903B
:1017D000049002A90448FEF729FE07B000BD0000EE
:1017E00030380240001002400004024010B50A48A0
:1017F0000A490860A720486000210848816040F23B
:10180000E731C160002101618161FFF7CFFB08B1C1
:10181000FEF708FE10BD0000004401407C000020DF
:1018200000B58DB0002009900A900B900C900790A5
:1018300008901C216846FEF78EFD2C482C49086054
:101840005320486000212A48816040F2E731C1609E
:10185000002101618161FFF7A9FB08B1FEF7E2FDFC
:101860004FF48050099009A92148FFF763FC08B1A3
:10187000FEF7D8FD1E48FFF76EFE08B1FEF7D2FD59
:1018800000200790089007A91948FFF735FB08B119
:10189000FEF7C8FD602000900020019002900490A7
:1018A000002269461248FFF7D4FD08B1FEF7BAFDE1
:1018B000042269460E48FFF7CCFD08B1FEF7B2FDE1
:1018C000082269460A48FFF7C4FD08B1FEF7AAFDE1
:1018D0000C2269460648FFF7BCFD08B1FEF7A2FDE1
:1018E0000348FFF765FD0DB000BD00000004004097
:1018F0003400002000BFFEE730B504460D46214607
:10190000002000F005F82946012000F001F830BD64
:1019100030B50246002901DA4C4200E00C46A0B284
:10192000012404EBE1738AB9012B07D10024114D86
:101930002D686C630F4C2468A0631AE00D4C24687A
:10194000606300240B4D2D68AC6312E0012A10D1B6
:10195000012B07D1074C2468E0630024054D2D6856
:101960002C6406E00024034D2D68EC63014C2468D0
:10197000206430BD3400002000BFFEE7B0EE401A06
:1019800010B99FED790A704790ED100A80ED110AA9
:1019900090ED0F0A80ED100AC0ED060A80ED071ADF
:1019A00030EEC10A80ED0F0A0178002975D190ED63
:1019B000010AD0ED0F1A20EE210A80ED090A90ED00
:1019C0000A0AD0ED021A90ED0F2A01EE820A80ED8C
:1019D0000A0A90ED0D0A80ED0E0A90ED0C0A80EDDA
:1019E0000D0A90ED0F0AD0ED101A30EE610A80ED6D
:1019F0000C0A90ED030AD0ED0C1A20EE210A80EDBE
:101A00000B0A90ED0A0AD0ED051AB4EEE10AF1EEE8
:101A100010FA04DD90ED050A80ED0A0A10E090ED61
:101A20000A0AD0ED051AF1EE611AB4EEE10AF1EE00
:101A300010FA05D290ED050AB1EE400A80ED0A0ACF
:101A400090ED090AD0ED0A1A30EE210AD0ED0B1AFA
:101A500030EE210A80ED080A90ED080AD0ED041A54
:101A6000B4EEE10AF1EE10FA04DD90ED040A80ED27
:101A7000080A76E090ED080AD0ED041AF1EE611A3A
:101A8000B4EEE10AF1EE10FA6BD290ED040AB1EE79
:101A9000400A80ED080A64E0FFE70178012960D17F
:101AA00090ED0F0AD0ED101A30EE610AD0ED011A58
:101AB00020EE210A80ED090A90ED020AD0ED0F1AFE
:101AC00020EE210A80ED0A0A90ED0D0A80ED0E0A43
:101AD00090ED0C0A80ED0D0A90ED0F0AD0ED101A72
:101AE000B0EE002A02EE610AD0ED111A30EE210AA2
:101AF00080ED0C0A90ED030AD0ED0C1A20EE210ABD
:101B000080ED0B0A90ED090AD0ED0A1A30EE210A99
:101B1000D0ED0B1A30EE210AD0ED081A30EE210A72
:101B200080ED080A90ED080AD0ED041AB4EEE10A3F
:101B3000F1EE10FA04DD90ED040A80ED080A10E0E1
:101B400090ED080AD0ED041AF1EE611AB4EEE10A44
:101B5000F1EE10FA05D290ED040AB1EE400A80EDE4
:101B6000080A90ED080A0EE70000000000B102B973
:101B70007047017092ED001A80ED011A92ED011A82
:101B800080ED021A92ED021A80ED031A80ED040A2C
:101B9000C0ED050A9FED0C1A80ED0E1A80ED0D1AAE
:101BA00080ED0C1A9FED081A80ED081A80ED0B1AD3
:101BB00080ED0A1A80ED091A80ED111A80ED101AD5
:101BC00080ED0F1A00BFD3E7000000007047704798
:101BD00010B5FEF733FD10BD00B593B0302107A856
:101BE000FEF7B9FB142102A8FEF7B5FB00BF0020E9
:101BF00001902448006840F080502249086008465F
:101C0000006800F08050019000BF00BF00BF0020BE
:101C100001901D48006840F480401B490860084658
:101C2000006800F48040019000BF00BF01200790D1
:101C30000004089002200D9041050E9104210F919F
:101C4000A8211091022111910421129107A8FEF7F9
:101C5000E9FE08B1FEF7E6FB0F2002900220039098
:101C6000002004904FF4A05005904FF4805006904F
:101C7000052102A8FEF7BCFD08B1FEF7D3FB13B0A7
:101C800000BD00004038024000700040034800687A
:101C900040F47000014908607047000088ED00E0E2
:101CA00010B50248FFF7CDFA10BD00007C000020FF
:101CB00010B502682D4B98420ED0B0F1804F0BD07A
:101CC0002B4B984208D02B4B984205D02A4B984278
:101CD00002D02A4B984203D122F070024B681A437B
:101CE000224B984220D0B0F1804F1DD0204B98421B
:101CF0001AD0204B984217D01F4B984214D01F4B3C
:101D0000984211D01E4B98420ED01E4B98420BD0D9
:101D10001D4B984208D01D4B984205D01C4B984251
:101D200002D01C4B984203D122F44072CB681A4374
:101D300022F080034C6943EA040202608B68C362AC
:101D40000B688362094B984202D00C4B984201D138
:101D50000B69036301234361036903F001031BB1B2
:101D6000036923F00103036110BD0000000001407E
:101D70000004004000080040000C00400004014046
:101D8000004001400044014000480140001800406C
:101D9000001C00400020004030B501F01F05012468
:101DA00004FA05F3046A9C430462046A01F01F0507
:101DB00002FA05F52C43046230BD30B50C4681684B
:101DC00021F47F4142EA032525432943816030BD48
:101DD0000A46816821F0700142F0070319438160CF
:101DE0007047000030B5026A056A25F001050562FA
:101DF0004368846924F0700424F003040D682C43C4
:101E000022F002028D682A43104DA84200D103E05F
:101E10000F4DA84206D100BF22F00802CD682A4328
:101E200022F00402094DA84202D0094DA84207D170
:101E300023F4807323F400734D692B438D692B4386
:101E4000436084614D684563026230BD000001401B
:101E50000004014030B5026A056A25F010050562EC
:101E60004368846924F4E04424F440740D6844EA2F
:101E7000052422F020028D6842EA0512124DA84284
:101E800000D103E0114DA84207D100BF22F080022B
:101E9000CD6842EA051222F040020B4DA84202D062
:101EA0000A4DA84209D123F4806323F400634D69ED
:101EB00043EA85038D6943EA8503436084614D6885
:101EC0008563026230BD0000000001400004014053
:101ED00030B5026A056A25F4807505624368C469F5
:101EE00024F0700424F003040D682C4322F40072E3
:101EF0008D6842EA0522124DA84200D103E0114D3F
:101F0000A84207D100BF22F40062CD6842EA052250
:101F100022F480620A4DA84202D00A4DA84209D19B
:101F200023F4805323F400534D6943EA05138D696C
:101F300043EA05134360C4614D68C563026230BD66
:101F4000000001400004014030B5036A056A25F431
:101F5000805505624468C26922F4E04222F440726E
:101F60000D6842EA052223F400538D6843EA0533E5
:101F7000084DA84202D0084DA84204D124F4804460
:101F80004D6944EA85144460C2614D68056403628A
:101F900030BD0000000001400004014030B50B4698
:101FA0001446026A056A25F001050562816921F07F
:101FB000F00141EA041122F00A021A43816102622F
:101FC00030BD30B50B461446026A056A25F010058F
:101FD0000562816921F4704141EA043122F0A002D6
:101FE00042EA03128161026230BD00BFFEE70000D9
:101FF00002480068C0F30220704700000CED00E0CA
:1020000010B5002804DB0A07130E054A135406E036
:102010000A07140E034A00F00F031B1FD45410BD0F
:1020200000E400E018ED00E010B50121FE48FEF7E5
:10203000F7FAFE4908700221FB48FEF7F1FAFB4966
:1020400048700421F848FEF7EBFAF8498870082137
:10205000F548FEF7E5FAF549C8704021F448FEF767
:10206000DFFAF24908718021F148FEF7D9FAEF4909
:1020700048714FF48071EE48FEF7D2FAEB4988714F
:102080004FF40071EA48FEF7CBFAE849C8710846F8
:102090000078C0B908464078A8B90846807890B959
:1020A0000846C07878B90846007960B90846407992
:1020B00048B90846807930B90846C07918B9002077
:1020C000DC49086087E1D9480078D0B9D748407822
:1020D000B8B9D6488078A0B9D448C078012810D1C2
:1020E000D248007968B9D148407950B9CF48807951
:1020F00038B9CE48C07920B94FF0FF30CD490860DB
:1021000069E1CA480078D0B9C8484078B8B9C7482A
:102110008078012813D1C548C07880B9C3480079B8
:1021200068B9C248407950B9C048807938B9BF48C9
:10213000C07920B96FF00100BE4908604BE1BB488F
:102140000078D0B9B9484078012816D1B7488078CE
:1021500098B9B648C07880B9B448007968B9B3482E
:10216000407950B9B148807938B9B048C07920B9C0
:102170006FF00200AF4908602DE1AC4800780128FB
:1021800019D1AA484078B0B9A848807898B9A7482A
:10219000C07880B9A548007968B9A448407950B999
:1021A000A248807938B9A148C07920B96FF00300FE
:1021B000A04908600FE19D48007801281BD19B4889
:1021C0004078012817D199488078012813D1974881
:1021D000C07880B99548007968B99448407950B979
:1021E0009248807938B99148C07920B96FF00300DE
:1021F00090490860EFE08D48007801281AD18B489B
:102200004078012816D18948807898B98748C078E5
:1022100080B98648007968B98448407950B98348C4
:10222000807938B98148C07920B96FF003008149BD
:102230000860D0E07D48007801281CD17B484078B8
:10224000012818D179488078012814D17748C078BE
:10225000012810D17548007968B97448407950B99F
:102260007248807938B97148C07920B96FF003009D
:1022700070490860AFE06D480078C8B96B48407895
:10228000B0B96A48807898B96848C07880B967481A
:10229000007901280CD16548407948B963488079B4
:1022A00030B96248C07918B901206249086092E0EB
:1022B0005E480078C8B95D484078B0B95B4880781E
:1022C00098B95A48C07880B95848007968B95748D1
:1022D0004079012809D15548807930B95348C079EF
:1022E00018B902205349086075E050480078C8B911
:1022F0004E484078B0B94D48807898B94B48C0787E
:1023000080B94A48007968B94848407950B9474887
:102310008079012806D14548C07918B9032045497C
:10232000086058E041480078C8B940484078B0B9E2
:102330003E48807898B93D48C07880B93B480079DC
:1023400068B93A48407950B93848807938B937483F
:10235000C079012803D10420364908603BE03348A6
:102360000078D0B931484078B8B930488078A0B901
:102370002E48C07888B92D48007970B92B4840792B
:1023800058B92A488079012807D12848C0790128FE
:1023900003D10420274908601DE024480078D0B903
:1023A00022484078B8B921488078A0B91F48C07841
:1023B00088B91E48007970B91C48407901280AD1B3
:1023C0001A488079012806D11848C079012802D11D
:1023D000042018490860DFED180A164890ED000A3D
:1023E000B8EEC00A1548FFF7C9FA154880ED000A93
:1023F00090ED000ADFED130A30EE200A124880ED5E
:10240000000A0F4890ED000ADFED0E0A30EEC00A18
:102410000E4880ED000A074800680D4909688842A7
:1024200029D00A4816E000000010024010000020E9
:10243000000402401800002000000000C40000203A
:10244000200000200000FA43240000202800002083
:102450001C00002090ED000ABDEEC00A10EE100A2C
:1024600001B2054890ED000ABDEEC00A10EE100A58
:1024700000B2FFF741FA10BD2400002010B5DFEDD7
:10248000050A9FED050A054A00210548FFF76EFB86
:1024900010BD00000000000000007A44F424000891
:1024A000C4000020FEF7D6F8FFF796FBFFF730F9DF
:1024B000FFF7B6F9FFF79AF9FFF716F90348FEF7A9
:1024C000E5FDFFF7DBFF00BFFEE700007C0000201A
:1024D0004FF04070E1EE100A70470000000000006D
:1024E00000000102030406070809000000000102C1
:1024F0000304000000007A43000000000000000018
:10250000202500080000002034000000C40100085D
:1025100054250008340000203C070000E0010008BA
:102520000000000010000000010000000024F40082
:10253000000000000000000000000000000000009B
:102540000000000000000000000000000000FA434E
:042550000000FA434A
:040000050800018965
:00000001FF
